{
  "abi": [
    {
      "inputs": [
        {
          "internalType": "string",
          "name": "name",
          "type": "string"
        },
        {
          "internalType": "string",
          "name": "symbol",
          "type": "string"
        },
        {
          "internalType": "uint8",
          "name": "decimals",
          "type": "uint8"
        },
        {
          "internalType": "uint256",
          "name": "initialSupply",
          "type": "uint256"
        }
      ],
      "stateMutability": "nonpayable",
      "type": "constructor"
    },
    {
      "anonymous": false,
      "inputs": [
        {
          "indexed": true,
          "internalType": "address",
          "name": "owner",
          "type": "address"
        },
        {
          "indexed": true,
          "internalType": "address",
          "name": "spender",
          "type": "address"
        },
        {
          "indexed": false,
          "internalType": "uint256",
          "name": "amount",
          "type": "uint256"
        }
      ],
      "name": "Approval",
      "type": "event"
    },
    {
      "anonymous": false,
      "inputs": [
        {
          "indexed": true,
          "internalType": "address",
          "name": "from",
          "type": "address"
        },
        {
          "indexed": true,
          "internalType": "address",
          "name": "to",
          "type": "address"
        },
        {
          "indexed": false,
          "internalType": "uint256",
          "name": "amount",
          "type": "uint256"
        }
      ],
      "name": "Transfer",
      "type": "event"
    },
    {
      "inputs": [],
      "name": "DOMAIN_SEPARATOR",
      "outputs": [
        {
          "internalType": "bytes32",
          "name": "",
          "type": "bytes32"
        }
      ],
      "stateMutability": "view",
      "type": "function"
    },
    {
      "inputs": [
        {
          "internalType": "address",
          "name": "",
          "type": "address"
        },
        {
          "internalType": "address",
          "name": "",
          "type": "address"
        }
      ],
      "name": "allowance",
      "outputs": [
        {
          "internalType": "uint256",
          "name": "",
          "type": "uint256"
        }
      ],
      "stateMutability": "view",
      "type": "function"
    },
    {
      "inputs": [
        {
          "internalType": "address",
          "name": "spender",
          "type": "address"
        },
        {
          "internalType": "uint256",
          "name": "amount",
          "type": "uint256"
        }
      ],
      "name": "approve",
      "outputs": [
        {
          "internalType": "bool",
          "name": "",
          "type": "bool"
        }
      ],
      "stateMutability": "nonpayable",
      "type": "function"
    },
    {
      "inputs": [
        {
          "internalType": "address",
          "name": "",
          "type": "address"
        }
      ],
      "name": "balanceOf",
      "outputs": [
        {
          "internalType": "uint256",
          "name": "",
          "type": "uint256"
        }
      ],
      "stateMutability": "view",
      "type": "function"
    },
    {
      "inputs": [],
      "name": "decimals",
      "outputs": [
        {
          "internalType": "uint8",
          "name": "",
          "type": "uint8"
        }
      ],
      "stateMutability": "view",
      "type": "function"
    },
    {
      "inputs": [],
      "name": "name",
      "outputs": [
        {
          "internalType": "string",
          "name": "",
          "type": "string"
        }
      ],
      "stateMutability": "view",
      "type": "function"
    },
    {
      "inputs": [
        {
          "internalType": "address",
          "name": "",
          "type": "address"
        }
      ],
      "name": "nonces",
      "outputs": [
        {
          "internalType": "uint256",
          "name": "",
          "type": "uint256"
        }
      ],
      "stateMutability": "view",
      "type": "function"
    },
    {
      "inputs": [
        {
          "internalType": "address",
          "name": "owner",
          "type": "address"
        },
        {
          "internalType": "address",
          "name": "spender",
          "type": "address"
        },
        {
          "internalType": "uint256",
          "name": "value",
          "type": "uint256"
        },
        {
          "internalType": "uint256",
          "name": "deadline",
          "type": "uint256"
        },
        {
          "internalType": "uint8",
          "name": "v",
          "type": "uint8"
        },
        {
          "internalType": "bytes32",
          "name": "r",
          "type": "bytes32"
        },
        {
          "internalType": "bytes32",
          "name": "s",
          "type": "bytes32"
        }
      ],
      "name": "permit",
      "outputs": [],
      "stateMutability": "nonpayable",
      "type": "function"
    },
    {
      "inputs": [],
      "name": "symbol",
      "outputs": [
        {
          "internalType": "string",
          "name": "",
          "type": "string"
        }
      ],
      "stateMutability": "view",
      "type": "function"
    },
    {
      "inputs": [],
      "name": "totalSupply",
      "outputs": [
        {
          "internalType": "uint256",
          "name": "",
          "type": "uint256"
        }
      ],
      "stateMutability": "view",
      "type": "function"
    },
    {
      "inputs": [
        {
          "internalType": "address",
          "name": "to",
          "type": "address"
        },
        {
          "internalType": "uint256",
          "name": "amount",
          "type": "uint256"
        }
      ],
      "name": "transfer",
      "outputs": [
        {
          "internalType": "bool",
          "name": "",
          "type": "bool"
        }
      ],
      "stateMutability": "nonpayable",
      "type": "function"
    },
    {
      "inputs": [
        {
          "internalType": "address",
          "name": "from",
          "type": "address"
        },
        {
          "internalType": "address",
          "name": "to",
          "type": "address"
        },
        {
          "internalType": "uint256",
          "name": "amount",
          "type": "uint256"
        }
      ],
      "name": "transferFrom",
      "outputs": [
        {
          "internalType": "bool",
          "name": "",
          "type": "bool"
        }
      ],
      "stateMutability": "nonpayable",
      "type": "function"
    }
  ],
  "bytecode": {
    "object": "0x60e06040523480156200001157600080fd5b5060405162000f2f38038062000f2f833981016040819052620000349162000315565b83838382600090805190602001906200004f929190620001a2565b50815162000065906001906020850190620001a2565b5060ff81166080524660a0526200007b62000099565b60c052506200008f91503390508262000135565b50505050620004a8565b60007f8b73c3c69bb8fe3d512ecc4cf759cc79239f7b179b0ffacaa9a75d522b39400f6000604051620000cd9190620003dd565b6040805191829003822060208301939093528101919091527fc89efdaa54c0f20c7adf612882df0950f5a951637e0307cdcb4c672f298b8bc660608201524660808201523060a082015260c00160405160208183030381529060405280519060200120905090565b806002600082825462000149919062000481565b90915550506001600160a01b0382166000818152600360209081526040808320805486019055518481527fddf252ad1be2c89b69c2b068fc378daa952ba7f163c4a11628f55a4df523b3ef910160405180910390a35050565b828054620001b090620003a0565b90600052602060002090601f016020900481019282620001d457600085556200021f565b82601f10620001ef57805160ff19168380011785556200021f565b828001600101855582156200021f579182015b828111156200021f57825182559160200191906001019062000202565b506200022d92915062000231565b5090565b5b808211156200022d576000815560010162000232565b634e487b7160e01b600052604160045260246000fd5b600082601f8301126200027057600080fd5b81516001600160401b03808211156200028d576200028d62000248565b604051601f8301601f19908116603f01168101908282118183101715620002b857620002b862000248565b81604052838152602092508683858801011115620002d557600080fd5b600091505b83821015620002f95785820183015181830184015290820190620002da565b838211156200030b5760008385830101525b9695505050505050565b600080600080608085870312156200032c57600080fd5b84516001600160401b03808211156200034457600080fd5b62000352888389016200025e565b955060208701519150808211156200036957600080fd5b5062000378878288016200025e565b935050604085015160ff811681146200039057600080fd5b6060959095015193969295505050565b600181811c90821680620003b557607f821691505b60208210811415620003d757634e487b7160e01b600052602260045260246000fd5b50919050565b600080835481600182811c915080831680620003fa57607f831692505b60208084108214156200041b57634e487b7160e01b86526022600452602486fd5b818015620004325760018114620004445762000473565b60ff1986168952848901965062000473565b60008a81526020902060005b868110156200046b5781548b82015290850190830162000450565b505084890196505b509498975050505050505050565b60008219821115620004a357634e487b7160e01b600052601160045260246000fd5b500190565b60805160a05160c051610a57620004d86000396000610425015260006103f0015260006101290152610a576000f3fe608060405234801561001057600080fd5b50600436106100b45760003560e01c806370a082311161007157806370a08231146101655780637ecebe001461018557806395d89b41146101a5578063a9059cbb146101ad578063d505accf146101c0578063dd62ed3e146101d557600080fd5b806306fdde03146100b9578063095ea7b3146100d757806318160ddd146100fa57806323b872dd14610111578063313ce567146101245780633644e5151461015d575b600080fd5b6100c1610200565b6040516100ce91906107af565b60405180910390f35b6100ea6100e5366004610820565b61028e565b60405190151581526020016100ce565b61010360025481565b6040519081526020016100ce565b6100ea61011f36600461084a565b6102fa565b61014b7f000000000000000000000000000000000000000000000000000000000000000081565b60405160ff90911681526020016100ce565b6101036103ec565b610103610173366004610886565b60036020526000908152604090205481565b610103610193366004610886565b60056020526000908152604090205481565b6100c1610447565b6100ea6101bb366004610820565b610454565b6101d36101ce3660046108a8565b6104cc565b005b6101036101e336600461091b565b600460209081526000928352604080842090915290825290205481565b6000805461020d9061094e565b80601f01602080910402602001604051908101604052809291908181526020018280546102399061094e565b80156102865780601f1061025b57610100808354040283529160200191610286565b820191906000526020600020905b81548152906001019060200180831161026957829003601f168201915b505050505081565b3360008181526004602090815260408083206001600160a01b038716808552925280832085905551919290917f8c5be1e5ebec7d5bd14f71427d1e84f3dd0314c0f7b2291e5b200ac8c7c3b925906102e99086815260200190565b60405180910390a350600192915050565b6001600160a01b03831660009081526004602090815260408083203384529091528120546000198114610356576103318382610989565b6001600160a01b03861660009081526004602090815260408083203384529091529020555b6001600160a01b0385166000908152600360205260408120805485929061037e908490610989565b90915550506001600160a01b03808516600081815260036020526040908190208054870190555190918716907fddf252ad1be2c89b69c2b068fc378daa952ba7f163c4a11628f55a4df523b3ef906103d99087815260200190565b60405180910390a3506001949350505050565b60007f000000000000000000000000000000000000000000000000000000000000000046146104225761041d610715565b905090565b507f000000000000000000000000000000000000000000000000000000000000000090565b6001805461020d9061094e565b33600090815260036020526040812080548391908390610475908490610989565b90915550506001600160a01b038316600081815260036020526040908190208054850190555133907fddf252ad1be2c89b69c2b068fc378daa952ba7f163c4a11628f55a4df523b3ef906102e99086815260200190565b428410156105215760405162461bcd60e51b815260206004820152601760248201527f5045524d49545f444541444c494e455f4558504952454400000000000000000060448201526064015b60405180910390fd5b6000600161052d6103ec565b6001600160a01b038a811660008181526005602090815260409182902080546001810190915582517f6e71edae12b1b97f4d1f60370fef10105fa2faae0126114a169c64845d6126c98184015280840194909452938d166060840152608083018c905260a083019390935260c08083018b90528151808403909101815260e08301909152805192019190912061190160f01b6101008301526101028201929092526101228101919091526101420160408051601f198184030181528282528051602091820120600084529083018083525260ff871690820152606081018590526080810184905260a0016020604051602081039080840390855afa158015610639573d6000803e3d6000fd5b5050604051601f1901519150506001600160a01b0381161580159061066f5750876001600160a01b0316816001600160a01b0316145b6106ac5760405162461bcd60e51b815260206004820152600e60248201526d24a72b20a624a22fa9a4a3a722a960911b6044820152606401610518565b6001600160a01b0390811660009081526004602090815260408083208a8516808552908352928190208990555188815291928a16917f8c5be1e5ebec7d5bd14f71427d1e84f3dd0314c0f7b2291e5b200ac8c7c3b925910160405180910390a350505050505050565b60007f8b73c3c69bb8fe3d512ecc4cf759cc79239f7b179b0ffacaa9a75d522b39400f600060405161074791906109ae565b6040805191829003822060208301939093528101919091527fc89efdaa54c0f20c7adf612882df0950f5a951637e0307cdcb4c672f298b8bc660608201524660808201523060a082015260c00160405160208183030381529060405280519060200120905090565b600060208083528351808285015260005b818110156107dc578581018301518582016040015282016107c0565b818111156107ee576000604083870101525b50601f01601f1916929092016040019392505050565b80356001600160a01b038116811461081b57600080fd5b919050565b6000806040838503121561083357600080fd5b61083c83610804565b946020939093013593505050565b60008060006060848603121561085f57600080fd5b61086884610804565b925061087660208501610804565b9150604084013590509250925092565b60006020828403121561089857600080fd5b6108a182610804565b9392505050565b600080600080600080600060e0888a0312156108c357600080fd5b6108cc88610804565b96506108da60208901610804565b95506040880135945060608801359350608088013560ff811681146108fe57600080fd5b9699959850939692959460a0840135945060c09093013592915050565b6000806040838503121561092e57600080fd5b61093783610804565b915061094560208401610804565b90509250929050565b600181811c9082168061096257607f821691505b6020821081141561098357634e487b7160e01b600052602260045260246000fd5b50919050565b6000828210156109a957634e487b7160e01b600052601160045260246000fd5b500390565b600080835481600182811c9150808316806109ca57607f831692505b60208084108214156109ea57634e487b7160e01b86526022600452602486fd5b8180156109fe5760018114610a0f57610a3c565b60ff19861689528489019650610a3c565b60008a81526020902060005b86811015610a345781548b820152908501908301610a1b565b505084890196505b50949897505050505050505056fea164736f6c634300080a000a",
    "linkReferences": {}
  }
}